{
    "abi": [
        {
            "type": "constructor",
            "inputs": [
                {
                    "name": "_attestationContract",
                    "type": "address",
                    "internalType": "address"
                },
                {
                    "name": "_wlfrToken",
                    "type": "address",
                    "internalType": "address"
                }
            ],
            "stateMutability": "nonpayable"
        },
        {
            "type": "function",
            "name": "IMAGEDIGEST",
            "inputs": [],
            "outputs": [
                {
                    "name": "",
                    "type": "string",
                    "internalType": "string"
                }
            ],
            "stateMutability": "view"
        },
        {
            "type": "function",
            "name": "activateWallet",
            "inputs": [
                {
                    "name": "header",
                    "type": "bytes",
                    "internalType": "bytes"
                },
                {
                    "name": "payload",
                    "type": "bytes",
                    "internalType": "bytes"
                },
                {
                    "name": "signature",
                    "type": "bytes",
                    "internalType": "bytes"
                },
                {
                    "name": "walletAddress",
                    "type": "address",
                    "internalType": "address"
                }
            ],
            "outputs": [],
            "stateMutability": "nonpayable"
        },
        {
            "type": "function",
            "name": "attestationContract",
            "inputs": [],
            "outputs": [
                {
                    "name": "",
                    "type": "address",
                    "internalType": "contract FlareVtpmAttestation"
                }
            ],
            "stateMutability": "view"
        },
        {
            "type": "function",
            "name": "distributeRewards",
            "inputs": [
                {
                    "name": "rewardees",
                    "type": "address[]",
                    "internalType": "address[]"
                },
                {
                    "name": "rewards",
                    "type": "uint256[]",
                    "internalType": "uint256[]"
                }
            ],
            "outputs": [],
            "stateMutability": "nonpayable"
        },
        {
            "type": "function",
            "name": "owner",
            "inputs": [],
            "outputs": [
                {
                    "name": "",
                    "type": "address",
                    "internalType": "address"
                }
            ],
            "stateMutability": "view"
        },
        {
            "type": "function",
            "name": "registerWallet",
            "inputs": [
                {
                    "name": "amount",
                    "type": "uint256",
                    "internalType": "uint256"
                }
            ],
            "outputs": [],
            "stateMutability": "nonpayable"
        },
        {
            "type": "function",
            "name": "walletRequests",
            "inputs": [
                {
                    "name": "",
                    "type": "address",
                    "internalType": "address"
                }
            ],
            "outputs": [
                {
                    "name": "requester",
                    "type": "address",
                    "internalType": "address"
                },
                {
                    "name": "depositAmount",
                    "type": "uint256",
                    "internalType": "uint256"
                }
            ],
            "stateMutability": "view"
        },
        {
            "type": "function",
            "name": "wlfrToken",
            "inputs": [],
            "outputs": [
                {
                    "name": "",
                    "type": "address",
                    "internalType": "contract IERC20"
                }
            ],
            "stateMutability": "view"
        },
        {
            "type": "event",
            "name": "RewardsDistributed",
            "inputs": [
                {
                    "name": "rewardees",
                    "type": "address[]",
                    "indexed": false,
                    "internalType": "address[]"
                },
                {
                    "name": "rewards",
                    "type": "uint256[]",
                    "indexed": false,
                    "internalType": "uint256[]"
                }
            ],
            "anonymous": false
        },
        {
            "type": "event",
            "name": "WalletActivated",
            "inputs": [
                {
                    "name": "walletAddress",
                    "type": "address",
                    "indexed": true,
                    "internalType": "address"
                },
                {
                    "name": "amount",
                    "type": "uint256",
                    "indexed": false,
                    "internalType": "uint256"
                }
            ],
            "anonymous": false
        },
        {
            "type": "event",
            "name": "WalletRegistered",
            "inputs": [
                {
                    "name": "requester",
                    "type": "address",
                    "indexed": true,
                    "internalType": "address"
                },
                {
                    "name": "amount",
                    "type": "uint256",
                    "indexed": false,
                    "internalType": "uint256"
                }
            ],
            "anonymous": false
        }
    ],
    "bytecode": {
        "object": "0x6080604052348015600f57600080fd5b50604051610d93380380610d93833981016040819052602c916087565b600080546001600160a01b039384166001600160a01b031991821617909155600180549290931691811691909117909155600280549091163317905560b5565b80516001600160a01b0381168114608257600080fd5b919050565b60008060408385031215609957600080fd5b60a083606c565b915060ac60208401606c565b90509250929050565b610ccf806100c46000396000f3fe608060405234801561001057600080fd5b50600436106100885760003560e01c806387be6d4e1161005b57806387be6d4e146101395780638da5cb5b1461014c5780639191d64f1461015f578063987373101461017257600080fd5b8063143ba4f31461008d5780631488d070146100a257806362693d35146100f957806371e684dd1461010e575b600080fd5b6100a061009b3660046106ef565b610185565b005b6100d56100b036600461077a565b600360205260009081526040902080546001909101546001600160a01b039091169082565b604080516001600160a01b0390931683526020830191909152015b60405180910390f35b610101610277565b6040516100f091906107c0565b600154610121906001600160a01b031681565b6040516001600160a01b0390911681526020016100f0565b600054610121906001600160a01b031681565b600254610121906001600160a01b031681565b6100a061016d3660046107f3565b610293565b6100a061018036600461084d565b61041c565b6002546001600160a01b031633146101dd5760405162461bcd60e51b81526020600482015260166024820152752737ba103a34329031b7b73a3930b1ba1037bbb732b960511b60448201526064015b60405180910390fd5b8281146102205760405162461bcd60e51b81526020600482015260116024820152704d69736d6174636865642061727261797360781b60448201526064016101d4565b60005b8381101561023357600101610223565b507fe69d325558610ba73c441901deb46d7f251108348dc5dc9447e8866774c12edc848484846040516102699493929190610901565b60405180910390a150505050565b604051806080016040528060428152602001610c586042913981565b600081116102e35760405162461bcd60e51b815260206004820181905260248201527f416d6f756e74206d7573742062652067726561746572207468616e207a65726f60448201526064016101d4565b6001546040516323b872dd60e01b8152336004820152306024820152604481018390526001600160a01b03909116906323b872dd906064016020604051808303816000875af115801561033a573d6000803e3d6000fd5b505050506040513d601f19601f8201168201806040525081019061035e919061098d565b6103a25760405162461bcd60e51b8152602060048201526015602482015274151bdad95b881d1c985b9cd9995c8819985a5b1959605a1b60448201526064016101d4565b604080518082018252338082526020808301858152600083815260038352859020935184546001600160a01b0319166001600160a01b039091161784555160019093019290925591518381527f5b67f804e323419e52b5705600ce2a2921abc81f923b72e1d53b0b1cda8eedd3910160405180910390a250565b3360009081526003602052604090206001015461047b5760405162461bcd60e51b815260206004820152601760248201527f4e6f2077616c6c6574207265717565737420666f756e6400000000000000000060448201526064016101d4565b60008054604051630124650560e41b81526001600160a01b03909116906312465050906104b6908b908b908b908b908b908b906004016109d1565b6020604051808303816000875af11580156104d5573d6000803e3d6000fd5b505050506040513d601f19601f820116820180604052508101906104f9919061098d565b60008054604051639d91be5560e01b815230600482015292935090916001600160a01b0390911690639d91be5590602401600060405180830381865afa158015610547573d6000803e3d6000fd5b505050506040513d6000823e601f3d908101601f1916820160405261056f9190810190610b03565b336000908152600360205260408082206001808201805483546001600160a01b031916909355939093559154905163a9059cbb60e01b81526001600160a01b038781166004830152602482018490529394509192169063a9059cbb906044016020604051808303816000875af11580156105ed573d6000803e3d6000fd5b505050506040513d601f19601f82011682018060405250810190610611919061098d565b6106555760405162461bcd60e51b8152602060048201526015602482015274151bdad95b881d1c985b9cd9995c8819985a5b1959605a1b60448201526064016101d4565b836001600160a01b03167f17fdc1bd50370816953aef2fe935e166b4eef9be9f3cd06fabb681cc70e831558260405161069091815260200190565b60405180910390a250505050505050505050565b60008083601f8401126106b657600080fd5b5081356001600160401b038111156106cd57600080fd5b6020830191508360208260051b85010111156106e857600080fd5b9250929050565b6000806000806040858703121561070557600080fd5b84356001600160401b0381111561071b57600080fd5b610727878288016106a4565b90955093505060208501356001600160401b0381111561074657600080fd5b610752878288016106a4565b95989497509550505050565b80356001600160a01b038116811461077557600080fd5b919050565b60006020828403121561078c57600080fd5b6107958261075e565b9392505050565b60005b838110156107b757818101518382015260200161079f565b50506000910152565b60208152600082518060208401526107df81604085016020870161079c565b601f01601f19169190910160400192915050565b60006020828403121561080557600080fd5b5035919050565b60008083601f84011261081e57600080fd5b5081356001600160401b0381111561083557600080fd5b6020830191508360208285010111156106e857600080fd5b60008060008060008060006080888a03121561086857600080fd5b87356001600160401b0381111561087e57600080fd5b61088a8a828b0161080c565b90985096505060208801356001600160401b038111156108a957600080fd5b6108b58a828b0161080c565b90965094505060408801356001600160401b038111156108d457600080fd5b6108e08a828b0161080c565b90945092506108f390506060890161075e565b905092959891949750929550565b6040808252810184905260008560608301825b87811015610942576001600160a01b0361092d8461075e565b16825260209283019290910190600101610914565b5083810360208501528481526001600160fb1b0385111561096257600080fd5b8460051b915081866020830137016020019695505050505050565b8051801515811461077557600080fd5b60006020828403121561099f57600080fd5b6107958261097d565b81835281816020850137506000828201602090810191909152601f909101601f19169091010190565b6060815260006109e560608301888a6109a8565b82810360208401526109f88187896109a8565b90508281036040840152610a0d8185876109a8565b9998505050505050505050565b634e487b7160e01b600052604160045260246000fd5b604051608081016001600160401b0381118282101715610a5257610a52610a1a565b60405290565b60405160a081016001600160401b0381118282101715610a5257610a52610a1a565b600082601f830112610a8b57600080fd5b81516001600160401b03811115610aa457610aa4610a1a565b604051601f8201601f19908116603f011681016001600160401b0381118282101715610ad257610ad2610a1a565b604052818152838201602001851015610aea57600080fd5b610afb82602083016020870161079c565b949350505050565b600060208284031215610b1557600080fd5b81516001600160401b03811115610b2b57600080fd5b820160808185031215610b3d57600080fd5b610b45610a30565b8151815260208201516001600160401b03811115610b6257600080fd5b820160a08187031215610b7457600080fd5b610b7c610a58565b81516001600160401b03811115610b9257600080fd5b610b9e88828501610a7a565b82525060208201516001600160401b03811115610bba57600080fd5b610bc688828501610a7a565b60208301525060408201516001600160401b03811115610be557600080fd5b610bf188828501610a7a565b60408301525060608201516001600160401b03811115610c1057600080fd5b610c1c88828501610a7a565b606083015250610c2e6080830161097d565b60808201526020830152506040828101519082015260609182015191810191909152939250505056fe307830303030303030303030303030303030303030303030303030303030303030303030303030303030303030303030303030303030303030303030303030303030a264697066735822122041f855ebc417963a85b251e5e0bba91512fecd00c3144a468bcee3e6fb1cd98164736f6c634300081b0033",
        "linkReferences": {}
    },
    "methodIdentifiers": {
        "IMAGEDIGEST()": "62693d35",
        "activateWallet(bytes,bytes,bytes,address)": "98737310",
        "attestationContract()": "87be6d4e",
        "distributeRewards(address[],uint256[])": "143ba4f3",
        "owner()": "8da5cb5b",
        "registerWallet(uint256)": "9191d64f",
        "walletRequests(address)": "1488d070",
        "wlfrToken()": "71e684dd"
    },
    "id": 1
}